{
  "_format": "hh-sol-artifact-1",
  "contractName": "SafeEIP7702Proxy",
  "sourceName": "contracts/SafeEIP7702Proxy.sol",
  "abi": [
    {
      "inputs": [
        {
          "internalType": "bytes32",
          "name": "setupDataHash",
          "type": "bytes32"
        },
        {
          "internalType": "address",
          "name": "singleton",
          "type": "address"
        }
      ],
      "stateMutability": "nonpayable",
      "type": "constructor"
    },
    {
      "inputs": [
        {
          "internalType": "bytes32",
          "name": "expectedHash",
          "type": "bytes32"
        },
        {
          "internalType": "bytes32",
          "name": "receivedHash",
          "type": "bytes32"
        }
      ],
      "name": "InvalidSetupData",
      "type": "error"
    },
    {
      "stateMutability": "payable",
      "type": "fallback"
    },
    {
      "inputs": [
        {
          "internalType": "address[]",
          "name": "",
          "type": "address[]"
        },
        {
          "internalType": "uint256",
          "name": "",
          "type": "uint256"
        },
        {
          "internalType": "address",
          "name": "",
          "type": "address"
        },
        {
          "internalType": "bytes",
          "name": "",
          "type": "bytes"
        },
        {
          "internalType": "address",
          "name": "",
          "type": "address"
        },
        {
          "internalType": "address",
          "name": "",
          "type": "address"
        },
        {
          "internalType": "uint256",
          "name": "",
          "type": "uint256"
        },
        {
          "internalType": "address payable",
          "name": "",
          "type": "address"
        }
      ],
      "name": "setup",
      "outputs": [],
      "stateMutability": "nonpayable",
      "type": "function"
    }
  ],
  "bytecode": "0x60c060405234801561001057600080fd5b5060405161049f38038061049f83398101604081905261002f916100c5565b806001600160a01b0381166100955760405162461bcd60e51b815260206004820152602260248201527f496e76616c69642073696e676c65746f6e20616464726573732070726f766964604482015261195960f21b606482015260840160405180910390fd5b600080546001600160a01b0319166001600160a01b039283161790556080929092521660a0526001600455610102565b600080604083850312156100d857600080fd5b825160208401519092506001600160a01b03811681146100f757600080fd5b809150509250929050565b60805160a051610379610126600039600061016b0152600060db01526103796000f3fe60806040526004361061001e5760003560e01c8063b63e800d1461009a575b6000547fa619486e0000000000000000000000000000000000000000000000000000000060003503610075577e0fffffffffffffffffffffffffffffffffffffffffffffffffffffffffffff811660005260206000f35b3660008037600080366000845af490503d6000803e80610094573d6000fd5b503d6000f35b3480156100a657600080fd5b506100ba6100b5366004610236565b6100bc565b005b600080366040516100ce929190610333565b60405190819003902090507f000000000000000000000000000000000000000000000000000000000000000081818114610141576040517fad43fc9a0000000000000000000000000000000000000000000000000000000081526004810192909252602482015260440160405180910390fd5b5050600080547fffffffffffffffffffffffff0000000000000000000000000000000000000000167f000000000000000000000000000000000000000000000000000000000000000073ffffffffffffffffffffffffffffffffffffffff1690811782559036908037600080366000845af490503d6000803e80610094573d6000fd5b803573ffffffffffffffffffffffffffffffffffffffff811681146101e857600080fd5b919050565b60008083601f8401126101ff57600080fd5b50813567ffffffffffffffff81111561021757600080fd5b60208301915083602082850101111561022f57600080fd5b9250929050565b6000806000806000806000806000806101008b8d03121561025657600080fd5b8a3567ffffffffffffffff81111561026d57600080fd5b8b01601f81018d1361027e57600080fd5b803567ffffffffffffffff81111561029557600080fd5b8d60208260051b84010111156102aa57600080fd5b60209182019b5099508b013597506102c460408c016101c4565b965060608b013567ffffffffffffffff8111156102e057600080fd5b6102ec8d828e016101ed565b90975095506102ff905060808c016101c4565b935061030d60a08c016101c4565b925060c08b0135915061032260e08c016101c4565b90509295989b9194979a5092959850565b818382376000910190815291905056fea264697066735822122036dbbbaefa106cdcf528cde03da0a9ccd11f95a2c456ce0e915f2b95267f0cd864736f6c634300081b0033",
  "linkReferences": {},
  "deployedLinkReferences": {}
}