{
  "_format": "hh-sol-artifact-1",
  "contractName": "SafeModuleSetup",
  "sourceName": "contracts/SafeModuleSetup.sol",
  "abi": [
    {
      "inputs": [
        {
          "internalType": "address[]",
          "name": "modules",
          "type": "address[]"
        }
      ],
      "name": "enableModules",
      "outputs": [],
      "stateMutability": "nonpayable",
      "type": "function"
    }
  ],
  "bytecode": "0x6080604052348015600f57600080fd5b506102258061001f6000396000f3fe608060405234801561001057600080fd5b506004361061002b5760003560e01c80638d0dc49f14610030575b600080fd5b61004361003e36600461010c565b610045565b005b60005b81811015610107573063610b592584848481811061006857610068610183565b905060200201602081019061007d91906101b2565b6040517fffffffff0000000000000000000000000000000000000000000000000000000060e084901b16815273ffffffffffffffffffffffffffffffffffffffff9091166004820152602401600060405180830381600087803b1580156100e357600080fd5b505af11580156100f7573d6000803e3d6000fd5b5050600190920191506100489050565b505050565b6000806020838503121561011f57600080fd5b823567ffffffffffffffff81111561013657600080fd5b8301601f8101851361014757600080fd5b803567ffffffffffffffff81111561015e57600080fd5b8560208260051b840101111561017357600080fd5b6020919091019590945092505050565b7f4e487b7100000000000000000000000000000000000000000000000000000000600052603260045260246000fd5b6000602082840312156101c457600080fd5b813573ffffffffffffffffffffffffffffffffffffffff811681146101e857600080fd5b939250505056fea2646970667358221220cc0532c570b197ffc3a947d6d651d236c784102c51a4962a4031bb3d7a09897364736f6c634300081b0033",
  "linkReferences": {},
  "deployedLinkReferences": {}
}