{
  "_format": "hh-sol-artifact-1",
  "contractName": "SafeEIP7702ProxyFactory",
  "sourceName": "contracts/SafeEIP7702ProxyFactory.sol",
  "abi": [
    {
      "anonymous": false,
      "inputs": [
        {
          "indexed": true,
          "internalType": "contract SafeEIP7702Proxy",
          "name": "proxy",
          "type": "address"
        },
        {
          "indexed": false,
          "internalType": "address",
          "name": "singleton",
          "type": "address"
        }
      ],
      "name": "ProxyCreation",
      "type": "event"
    },
    {
      "inputs": [
        {
          "internalType": "address",
          "name": "_singleton",
          "type": "address"
        },
        {
          "internalType": "bytes",
          "name": "initializer",
          "type": "bytes"
        },
        {
          "internalType": "uint256",
          "name": "saltNonce",
          "type": "uint256"
        }
      ],
      "name": "createChainSpecificProxyWithNonce",
      "outputs": [
        {
          "internalType": "contract SafeEIP7702Proxy",
          "name": "proxy",
          "type": "address"
        }
      ],
      "stateMutability": "nonpayable",
      "type": "function"
    },
    {
      "inputs": [
        {
          "internalType": "address",
          "name": "_singleton",
          "type": "address"
        },
        {
          "internalType": "bytes",
          "name": "initializer",
          "type": "bytes"
        },
        {
          "internalType": "uint256",
          "name": "saltNonce",
          "type": "uint256"
        }
      ],
      "name": "createProxyWithNonce",
      "outputs": [
        {
          "internalType": "contract SafeEIP7702Proxy",
          "name": "proxy",
          "type": "address"
        }
      ],
      "stateMutability": "nonpayable",
      "type": "function"
    },
    {
      "inputs": [],
      "name": "getChainId",
      "outputs": [
        {
          "internalType": "uint256",
          "name": "",
          "type": "uint256"
        }
      ],
      "stateMutability": "view",
      "type": "function"
    },
    {
      "inputs": [],
      "name": "proxyCreationCode",
      "outputs": [
        {
          "internalType": "bytes",
          "name": "",
          "type": "bytes"
        }
      ],
      "stateMutability": "pure",
      "type": "function"
    }
  ],
  "bytecode": "0x6080604052348015600f57600080fd5b50610a248061001f6000396000f3fe608060405234801561001057600080fd5b506004361061004c5760003560e01c80631688f0b9146100515780633408e4701461008e57806353e5d9351461009c578063ec9e80bb146100b1575b600080fd5b61006461005f366004610387565b6100c4565b60405173ffffffffffffffffffffffffffffffffffffffff90911681526020015b60405180910390f35b604051468152602001610085565b6100a4610166565b60405161008591906104d7565b6100646100bf366004610387565b6101ae565b6000808380519060200120836040516020016100ea929190918252602082015260400190565b60405160208183030381529060405280519060200120905061010d8585836101e0565b60405173ffffffffffffffffffffffffffffffffffffffff8781168252919350908316907f4f51faf6c4561ff95f067657e43439f0f856d97c04d9ec9070a6199ad418e2359060200160405180910390a2509392505050565b6060604051806020016101789061034b565b7fffffffffffffffffffffffffffffffffffffffffffffffffffffffffffffffe082820381018352601f90910116604052919050565b6000808380519060200120836101c14690565b60408051602081019490945283019190915260608201526080016100ea565b6000833b61024f576040517f08c379a000000000000000000000000000000000000000000000000000000000815260206004820152601f60248201527f53696e676c65746f6e20636f6e7472616374206e6f74206465706c6f7965640060448201526064015b60405180910390fd5b6000604051806020016102619061034b565b6020820181038252601f19601f82011660405250848051906020012060001c8673ffffffffffffffffffffffffffffffffffffffff166040516020016102a993929190610528565b6040516020818303038152906040529050828151826020016000f5915073ffffffffffffffffffffffffffffffffffffffff8216610343576040517f08c379a000000000000000000000000000000000000000000000000000000000815260206004820152601360248201527f437265617465322063616c6c206661696c6564000000000000000000000000006044820152606401610246565b509392505050565b61049f8061055083390190565b7f4e487b7100000000000000000000000000000000000000000000000000000000600052604160045260246000fd5b60008060006060848603121561039c57600080fd5b833573ffffffffffffffffffffffffffffffffffffffff811681146103c057600080fd5b9250602084013567ffffffffffffffff8111156103dc57600080fd5b8401601f810186136103ed57600080fd5b803567ffffffffffffffff81111561040757610407610358565b6040517fffffffffffffffffffffffffffffffffffffffffffffffffffffffffffffffe0603f7fffffffffffffffffffffffffffffffffffffffffffffffffffffffffffffffe0601f8501160116810181811067ffffffffffffffff8211171561047357610473610358565b60405281815282820160200188101561048b57600080fd5b8160208401602083013760009181016020019190915293969395505050506040919091013590565b60005b838110156104ce5781810151838201526020016104b6565b50506000910152565b60208152600082518060208401526104f68160408501602087016104b3565b601f017fffffffffffffffffffffffffffffffffffffffffffffffffffffffffffffffe0169190910160400192915050565b6000845161053a8184602089016104b3565b9190910192835250602082015260400191905056fe60c060405234801561001057600080fd5b5060405161049f38038061049f83398101604081905261002f916100c5565b806001600160a01b0381166100955760405162461bcd60e51b815260206004820152602260248201527f496e76616c69642073696e676c65746f6e20616464726573732070726f766964604482015261195960f21b606482015260840160405180910390fd5b600080546001600160a01b0319166001600160a01b039283161790556080929092521660a0526001600455610102565b600080604083850312156100d857600080fd5b825160208401519092506001600160a01b03811681146100f757600080fd5b809150509250929050565b60805160a051610379610126600039600061016b0152600060db01526103796000f3fe60806040526004361061001e5760003560e01c8063b63e800d1461009a575b6000547fa619486e0000000000000000000000000000000000000000000000000000000060003503610075577e0fffffffffffffffffffffffffffffffffffffffffffffffffffffffffffff811660005260206000f35b3660008037600080366000845af490503d6000803e80610094573d6000fd5b503d6000f35b3480156100a657600080fd5b506100ba6100b5366004610236565b6100bc565b005b600080366040516100ce929190610333565b60405190819003902090507f000000000000000000000000000000000000000000000000000000000000000081818114610141576040517fad43fc9a0000000000000000000000000000000000000000000000000000000081526004810192909252602482015260440160405180910390fd5b5050600080547fffffffffffffffffffffffff0000000000000000000000000000000000000000167f000000000000000000000000000000000000000000000000000000000000000073ffffffffffffffffffffffffffffffffffffffff1690811782559036908037600080366000845af490503d6000803e80610094573d6000fd5b803573ffffffffffffffffffffffffffffffffffffffff811681146101e857600080fd5b919050565b60008083601f8401126101ff57600080fd5b50813567ffffffffffffffff81111561021757600080fd5b60208301915083602082850101111561022f57600080fd5b9250929050565b6000806000806000806000806000806101008b8d03121561025657600080fd5b8a3567ffffffffffffffff81111561026d57600080fd5b8b01601f81018d1361027e57600080fd5b803567ffffffffffffffff81111561029557600080fd5b8d60208260051b84010111156102aa57600080fd5b60209182019b5099508b013597506102c460408c016101c4565b965060608b013567ffffffffffffffff8111156102e057600080fd5b6102ec8d828e016101ed565b90975095506102ff905060808c016101c4565b935061030d60a08c016101c4565b925060c08b0135915061032260e08c016101c4565b90509295989b9194979a5092959850565b818382376000910190815291905056fea264697066735822122036dbbbaefa106cdcf528cde03da0a9ccd11f95a2c456ce0e915f2b95267f0cd864736f6c634300081b0033a2646970667358221220ab30d746d838c8b1d8dba768dfdbfb1016c6e3f084a15220dc5758caca6c28a664736f6c634300081b0033",
  "linkReferences": {},
  "deployedLinkReferences": {}
}